:020000040800F2
:1000000030080020AD0200089D300008792C00085F
:1000100099300008690B0008353400080000000022
:10002000000000000000000000000000893100080E
:100030006D0B000800000000A13000088D310008A1
:10004000C7020008C7020008C7020008C70200086C
:10005000C7020008C7020008710B0008C7020008A9
:10006000C7020008C7020008C7020008C70200084C
:10007000C7020008C7020008C7020008C70200083C
:10008000C7020008C70200085D0B0008000000005E
:10009000000000000000000000000000C70200088F
:1000A000C702000849320008C7020008C70200085A
:1000B000C7020008C7020008C7020008C7020008FC
:1000C000C7020008C7020008C7020008C7020008EC
:1000D000C7020008C7020008C702000800000000AD
:1000E000C7020008C7020008C7020008000000009D
:1000F000000000000000000000000000C70200082F
:1001000000000000C7020008C7020008C70200087C
:1001100000000000000000000000000000000000DF
:10012000C7020008C7020008C7020008C70200088B
:10013000C7020008000000000000000000000000EE
:10014000000000000000000000000000C7020008DE
:10015000C7020008C7020008C7020008C70200085B
:10016000C7020008C70200080000000000000000ED
:10017000000000000000000000000000000000007F
:1001800000000000C702000800000000000000009E
:10019000C7020008C702000800F002F800F077F874
:1001A00014A696E8000CB244B344DA4501D100F03D
:1001B0006EF8BAE80F000FA696E83000A5EB04052C
:1001C00004EB0607AAEB0704A7F101074FEA151590
:1001D0004FEA3414A4F10104AC4201D300F057F803
:1001E00013F0010F18BFFB1A43F0010300F001F8F0
:1001F000DBE71847CC3D0000EC3D0000103A24BF7F
:1002000078C878C1FAD8520724BF30C830C144BF7B
:1002100004680C6070470000704700000023002451
:1002200000250026103A28BF78C1FBD8520728BF06
:1002300030C148BF0B607047692900F045816429CF
:1002400000F04281752900F03F816F2900F0D681CE
:10025000782900F0FD810368DB0928BF41F08001A7
:10026000632900F0AE83E32900F0C18300207047CA
:100270001FB503F03BFE00F019FC04000020002134
:1002800003F01EFE401C60601FBD10B510BD00F0E5
:10029000E7FB1146FFF7ECFF03F0FEFA00F00AFC63
:1002A00003B4FFF7F2FF03BC00F050FC094880479D
:1002B00009480047FEE7FEE7FEE7FEE7FEE7FEE748
:1002C000FEE7FEE7FEE7FEE704480549054A064B60
:1002D0007047000035320008990100083002002004
:1002E00030080020300400203004002053EA020CC3
:1002F00000F069802DE9F04B4FF00006002B1FBF86
:10030000B3FA83F503FA05F424FA05F65E4012BF4A
:100310001643B2FA82F502FA05F4C5F120051EBFB4
:1003200022FA05FC44EA0C04203556EA044C4FEA54
:10033000144418BF641C4FF000084FF000099042AD
:1003400071EB030C39D3002919BFB1FA81F701FA17
:1003500007F6B0FA80F700FA07F6C7F120071EBFCC
:1003600020FA07FC46EA0C062037B6FBF4FCA7EBA4
:100370000507103F07F01F0BCBF120062CFA06F6FD
:100380000CFA0BFB44BFB3460026202FA4BF5E46E9
:100390004FF0000B5BEA060C08BF4FF0010B19EBA6
:1003A0000B0948EB0608ABFB027C06FB02CC0BFBFF
:1003B00003CCC01B71EB0C01C1E70B460246414662
:1003C0004846BDE8F08B13B5084318BF4FF0FF3027
:1003D0000146AFF30080BDE81C4070470FB41CB568
:1003E000074B06AA7B4469460090059800F0C7FABF
:1003F0000020694600F0D6FA1CBC5DF814FB000032
:10040000BD05000070B5044685690068C10601D5C8
:10041000302600E02026C00707D070BDD4E90121B6
:1004200030469047206A401C20626D1EF6D570BD94
:1004300070B5044685690078C00707D170BDD4E95E
:10044000012120209047206A401C20626D1EF6D5B5
:1004500070BD09684A0501D540B27047C905FCD591
:1004600000B2704709684A0501D5C0B27047C90596
:10047000FCD580B2704770B50C460546012A05D000
:100480002878800600D5EA69002302E0012305E010
:100490005B1C934202D2E05C0028F9D1A869E618FF
:1004A000C01AA861286A184428622846FFF7AAFFE4
:1004B00004E0D5E9012114F8010B9047B442F8D3C8
:1004C0002846FFF7B5FF70BD2DE9F0410646002430
:1004D00010687529314616A510D0FFF7BAFF00281D
:1004E00002DA404213A507E031688A0701D512A558
:1004F00002E0490704D511A5012401E0FFF7B2FF8E
:1005000000210A2206F1240709E0B0FBF2FCB0FB4F
:10051000F2F302FB1C00303078541846491C0028C6
:10052000F3D123462A463046BDE8F04100F0C9B970
:10053000000000002D0000002B0000002000000043
:100540002DE9FF5F15468A460446DFF8AC80F84483
:100550000027D8E900103E46CDE9001010E03AF837
:1005600016106A4602A800F04EFA411C07D0217806
:10057000890603D5E269391891420DD80744761CE3
:100580002078800602D5E069B84205DDAE42E6DBA0
:100590003AF816000028E2D1A069C01BA0612046ED
:1005A000FFF730FFD8E90010CDE90010002017E078
:1005B0003AF818106A4602A800F025FAB0F1FF3F99
:1005C00081460BD000250DF1080B05E0D4E901218F
:1005D0001BF8050090476D1C4D45F7D308F101004D
:1005E000B0428046E4DB206A384420622046FFF7B0
:1005F0001FFFBDE8FF9F0000B639000070B504463C
:1006000021461068FFF72EFF002104F1240505E0C4
:1006100000F007023032C0086A54491C0028F7D1A4
:100620002068002308A2050708D500F02000084331
:1006300004D0E069012305A2401EE0612046BDE828
:10064000704000F03EB900000000000030000000E3
:1006500070B504460D4621461068FFF703FF218858
:10066000090502D50F4A7A4402E00E4A7A440E3256
:10067000002104F1240305E000F00F060009965D57
:100680005E54491C0028F7D120780023000704D5C8
:10069000702D02D009B1022311322046BDE870400E
:1006A00000F00FB9A63800002DE9F05F8946044636
:1006B0004FF0000ADFF874B1FB44C0F820A02046D8
:1006C000E1688847002874D0252806D0D4E90121A4
:1006D0009047206A401C2062F1E700265F462046D2
:1006E000E16888472028054607DB312D05D27819B7
:1006F00010F8200C08B10643F1E7B00701D526F049
:100700000406C4F81CA00027C4F818A02A2D09D09C
:10071000284603F0CDFB38B304EB8708303DC8F81A
:10072000185019E059F8041B204604EB8702916128
:10073000E1688847012F054618D1E069002820DAD2
:1007400026F020061DE0D8F8180000EB800005EB2D
:1007500040003038C8F818002046E1688847054650
:1007600003F0A6FB0028EED1012F0AD02E2D08D1D0
:100770002046E16888477F1C0546022F46F0200688
:10078000C4DBA069002803DA404246F00106A061FC
:10079000F00701D026F010066C2D0BD0682D09D083
:1007A0004C2D39D06A2D35D0742D35D07A2D33D0DB
:1007B00016E038E0E1682F4620468847B8420546F3
:1007C00009D16C2F26D04FF48060E16806432046A3
:1007D0008847054604E06C2F1AD04FF4807006431A
:1007E0000DB3A5F14100192802D8203546F4006662
:1007F0004A462946204626604E46FFF71DFD80B139
:1008000001280BD0F61D26F0070000F1080956E775
:100810004020E4E78020D8E70020D6E706F104096D
:100820004DE7284652E7206ABDE8F09F7C3800007B
:1008300010B5431C02E010F8011B71B18107FAD119
:100840004FF0013202C88C1A8C4314EAC211F9D05D
:10085000C01A0A0603D0C01E10BDC01A10BD0A047B
:1008600001D0801E10BD0902FCD0401E10BD4FF00B
:10087000000200B5134694469646203922BFA0E8F0
:100880000C50A0E80C50B1F12001BFF4F7AF0907FC
:1008900028BFA0E80C5048BF0CC05DF804EB8900ED
:1008A00028BF40F8042B08BF704748BF20F8022B30
:1008B00011F0804F18BF00F8012B70477047704748
:1008C00070472DE9F0470D4699469246044600F1DF
:1008D00024080168880604D5E06921F01001216030
:1008E00000E00120A84201DD471B00E00027A169CC
:1008F0007A1902EB0900081AA0612078C00602D418
:100900002046FFF77FFD002608E0D4E901211AF810
:1009100006009047206A401C761C20624E45F4DB9E
:100920002078C0060AD52046FFF76CFD06E0D4E922
:10093000012130209047206A401C2062381EA7F118
:100940000107F4DC07E0D4E9012118F8050090471D
:10095000206A401C2062281EA5F10105F3DC204618
:10096000FFF766FD2078000602D50220BDE8F0877B
:100970000120FBE701694A1C02610878704700B555
:100980008FB0CDE901310021059105497944CDE9C8
:10099000031011466846FFF787FE0FB000BD000048
:1009A000E5FFFFFF0A6802F8010B0A60704710B507
:1009B000436913B1AFF3008001E0FFF75CFD012054
:1009C00010BD127800F124010A7000224A70012241
:1009D000EDE711684FF0FF32E9E710B5436913B155
:1009E000AFF3008001E0FFF7ABFD012010BD1288DE
:1009F00000F1240182840022C2840122EDE7116803
:100A00004FF0FF32E9E72DE9F04116460C46054666
:100A100000F01EF8036893F80101012807D0FF2CAD
:100A200012D8185D80B101202C70BDE8F081D3F898
:100A300007013246214603F20713C7182846BC4671
:100A4000BDE8F041002360474FF0FF30EDE70000C4
:100A500010B500F02BF8001D10BD00BF653400007C
:100A6000754600F031F8AE4605006946534620F061
:100A70000700854618B020B5FFF726FCBDE82040EA
:100A80004FF000064FF000074FF000084FF0000B4A
:100A9000AC46ACE8C009ACE8C009ACE8C009ACE8B9
:100AA000C00921F007018D467047000000487047DB
:100AB0006000002010B50446AFF300802046BDE87A
:100AC0001040FFF7EDBB00000048704740000020D9
:100AD00030B44FF0013C50F8042B51F8043BCCFAF1
:100AE00052F4D51A20D1FCB950F8042B51F8043B2C
:100AF000CCFA52F4D51A17D1B4B950F8042B51F8E6
:100B0000043BCCFA52F4D51A0ED16CB950F8042B30
:100B100051F8043BCCFA52F4D51A05D1002CDAD0A6
:100B200030BC4FF00000704729BAB1FA81F111F0E2
:100B30001801D1F120008440F2D1CA40CB4012F01C
:100B4000FF0213F0FF0330BCD01A70470149182090
:100B5000ABBEFEE7260002007047000040F2FC003A
:100B6000C2F2000000F092B9FEE7000070470000FA
:100B7000012000F01FBC0000B0B5056804690279CF
:100B80004379D0E902EC286844B1082C04D0042C45
:100B900014BF4024382402E03C2400E03424AEEBAF
:100BA0000C0500EE105AD51A01EE105AB8EE400AA4
:100BB000B8EEC11A80EE010A914238BF0A469A4245
:100BC00098BF1A4601EE102AB8EE411A02EE10CA7A
:100BD000B8EE422A20EE010A30EE020ABCEEC00A4C
:100BE00010EE101A0151B0BDDDF800C04171027164
:100BF000C0E902C3704700007047000090F83C2035
:100C0000012A04BF0220704710B5026891F810C095
:100C10005368BCF1010F23F0400308BF4033536019
:100C2000D2F804C04FF6FF53CFF63F7303EA0C032C
:100C30005360D2F804C0D1E9003E8C6843EA0C034B
:100C40005360C2F824E09462536823F01F0353609A
:100C50008989536819435160002180F83C100020B5
:100C600010BD0000F0B581B00022009290F83C2049
:100C7000012A03D1022001B0F0BD00BF0F6801239B
:100C80001FFA87FC80F83C304FEA4C0307EB470221
:100C900013FA87F31024092F88BFA3F11E0288BF1F
:100CA0000C2403684FF0070E1E590EFA02F5AE43EE
:100CB0001E518E681D5906FA02F22A431A514968DC
:100CC000062907D801EB81014A1F194651F8345F04
:100CD0000FE000BF0C2901EB810105D8A1F123022F
:100CE000194651F8305F04E0A1F14102194651F86C
:100CF0002C5F1F26964025EA06060E600CFA02FEBF
:100D000042F2043C0A68C4F2010CACF5417642EAB6
:100D10000E02B3420A6005D0002180F83C1000208A
:100D200001B0F0BD1221112FC1F2000118BF8F4296
:100D30003AD1DCF800208F4222F48002CCF8002067
:100D4000DCF8002042F40002CCF80020E4D140F2AC
:100D50003801C2F2000109684DF68362C4F21B3209
:100D6000A1FB0212910C01EB810149000091009955
:100D70000029D1D000990139009100990029CBD0E8
:100D800000990139009100990029C5D000990139D5
:100D9000009100990029BFD0009901390091009974
:100DA0000029E7D1B8E700BF122FB5D1DCF8001059
:100DB00021F40001CCF80010DCF8001041F48001AF
:100DC000CCF80010A8E70000F0B58BB0044600F0A6
:100DD00059F840F2A005C2F20005696904292FD133
:100DE000688180B202F05EF940F200200026C0F275
:100DF0008000CDE905660190286943F66271C0F66E
:100E0000000131F8100043F66A7102902869C0F6BB
:100E1000000131F810000A250390012701A920469E
:100E200004958DF81470FFF7E9FE40F2FC04CDE95B
:100E30000757CDE90976C2F2000407A917E000BF01
:100E4000297839B128810020287004900190012070
:100E500006E000BFE8800120002128700491019085
:100E600040F2FC04C2F2000401A902900390204663
:100E7000FFF7F8FE204600F0B9F90BB0F0BD000016
:100E8000704700000068C06C7047000070B50446F1
:100E9000006806684568B10717D515F0200114D021
:100EA000216CC90603D4216C41F40071216481686E
:100EB00011F0405F02D1217E002969D02046FFF762
:100EC00083FF20686FF012010160710714D515F0DF
:100ED000800111D0216CC90603D4216C41F400516A
:100EE0002164816811F4401F30D02046FFF784FE52
:100EF00020686FF00C010160F10706D015F0400189
:100F00001CBF01685FEAC17112D1B1060FD515F09F
:100F1000806108BF70BD616C6FF0200541F0020177
:100F2000616405602046FFF7ABFF2068056070BD77
:100F3000206C40F480302064204600F0F1F82068F6
:100F40006FF001010160B106E1D4F0E7816B11F4AB
:100F5000401F02D081684905C7D441684905C4D4FF
:100F6000816811F0405FC0D1217E0029BDD1416868
:100F700021F080014160206C20F480502064206CBE
:100F8000C005B2D4206C40F001002064ADE700BF82
:100F9000C16A11F4700F03D0816849053FF58EAF27
:100FA000416821F020014160206C20F480702064B1
:100FB000206CC0043FF582AF206C40F0010020643B
:100FC0007CE70000002804BF0120704710B5016CC9
:100FD00000293DD0016CC90645D4016C41F20212D2
:100FE0009143023142F204320164C4F201021168F9
:100FF00021F440311160136890E812102343D0F8B7
:1010000010E013604A68012422F480724A604A6842
:10101000C0F6007442EA0E224A604A6822F040722A
:101020004A604A6842EA0C024A608A6822F4006216
:101030008A60C2688B681A438A60826A8B68A2429F
:1010400023F070638B608B6810D123F0405216E060
:10105000044600F079F820460021616484F83C10D1
:10106000016CC906B9D5012153E000BF1A438A605B
:101070008A6822F040528A60C26A8B681A438A608A
:101080008A6822F002028A608A68037E90F8204013
:1010900042EA43028A604A6884B142F400624A60CC
:1010A0004A684EF2000322F460424A60426ACFF678
:1010B000FF734C6803EB4232224301E022F40062EA
:1010C0004A60CA6A40F2000C22F47002CA62C36924
:1010D0004269CFF6F07CCC6A0CEB03532343CB621E
:1010E0008B6823F400738B6090F830308C6844EA8E
:1010F00043238B608B6823F480638B608B6843EAA7
:1011000082228A6000214164026C012363F30102A0
:101110000264002280F83C20BDE810400846704779
:10112000006842F20001C4F20101884218BF704712
:1011300040F2A000C2F20000416909B1704700BF4F
:10114000408901F0AFBF0000F0B587B042F2000562
:101150000068C4F201050026A8420696CDE904669F
:101160000396029602D007B0F0BD00BF43F63000F0
:101170000196C4F20200416902AC41F48071416100
:101180004169032701F48071019101990196016879
:1011900041F004010160016801F00401019101992D
:1011A0000196016841F0010101600068214600F0EC
:1011B0000100019001980120029005F56840CDE9F9
:1011C000037600F003F905F560402146CDE902778A
:1011D000049600F0FBF812200021002200F032FCFF
:1011E000122000F01DFC07B0F0BD000080B581B0FA
:1011F0000021009190F83C10012903D1022001B098
:1012000080BD00BFD0F800E0012180F83C1071469D
:1012100051F8083FDB072AD10B684DF6836243F093
:1012200001030B6040F23803C2F200031B68C4F2F2
:101230001B32A3FB02239A0C02EB42020092009A9B
:10124000AAB100BF009A013A0092009A7AB1009ABE
:10125000013A0092009A52B1009A013A0092009A23
:101260002AB1009A013A0092009A002AEAD10A684B
:10127000036CD2070CD143F01001016400F144016A
:1012800001200A6810430860002001B080BD00BF43
:1012900040F2017223EA020202F580720264DEF873
:1012A0000420520504D5026C012363F30D3202645D
:1012B000026C4FF0000C0023D20444BF426C22F0B9
:1012C0000603436480F83CC06FF02200CEF80000B3
:1012D000DEF8042042F2000042F0806242F0200278
:1012E000C4F20100CEF80420D0F80423D20609D0BD
:1012F00086450BD1806810F0405F07D14FF08040E9
:10130000BFE700BF086810F0405FF7D0002001B0D1
:1013100080BD000090F83C10012904BF02207047F6
:1013200001688A6822F001028A608A68D2070CD1BB
:101330004A684FF6DF73CFF6FF331A404A60016CFC
:1013400041F20112914301310164002180F83C1007
:1013500000207047B0B5044600F014F9054640F28D
:101360003000C2F200000078611C18BF044400BFC6
:1013700000F008F9401BA042FAD3B0BD012818BF05
:10138000704710B540F20040C4F202000121012470
:1013900000F0ECF810B1BDE81040704740F2A0003A
:1013A000C2F2000000214470C1700471BDE8104019
:1013B0007047000043F61441C4F201010A6802427A
:1013C00014BF08607047FFF7D9BF00002DE9F04F48
:1013D00083B000F1200200F13E4741F20005009287
:1013E00007F1FF77C4F2020507224FEAB726A842A9
:1013F00008BF042200254FF000084FF00009042E1A
:1014000038BF4FEAB72201920AE000BF09F1010993
:1014100008F10208B9F1100F05F1040500F0A280EF
:101420000F68012202FA09FE17EA0E0AEED0D1F87F
:1014300004C003220CF003077E1E02FA08F4012EFA
:101440006FEA040B12D88468CE6804EA0B0406FA2B
:1014500008F634438460446824EA0E06CCF3001492
:1014600004FA09F42643466004E000BF032F01D1CB
:1014700003271EE0C6688C6806EA0B0604FA08F427
:101480002643022FC66014D16FF00302009E02EAC9
:10149000590756F807C005F01C040F220B69A2403B
:1014A0002CEA0202A3401A43F251D1F804C00CF016
:1014B0000307026807FA08F302EA0B021A431CF456
:1014C000403F0260A2D0002243F644030292C4F2DD
:1014D00002031A6843F6004442F480421A601A6814
:1014E000C4F2010402F480420292029A29F003023B
:1014F0004FF6084C2244CFF6FF7C52F80C3005F032
:101500000C070F26BE40B343019E06FA07F73B4384
:1015100042F80C30A2684B6842EA0A0743F60C4CCA
:10152000DE0258BF22EA0A07A760C4F2010CDCF809
:1015300000209E0242EA0A0758BF22EA0A07CCF8B6
:10154000007062689E0342EA0A0758BF22EA0A074F
:1015500067602268DB0342EA0A0758BF22EA0A07EB
:10156000276053E703B0BDE8F08F00000069084032
:1015700018BF012070470000002A08BF09048161DC
:101580007047000040F22C20C2F200000068704753
:10159000002804BF01207047F0B581B0044690F8E0
:1015A0003D0028B9002084F83C00204600F090F966
:1015B000242084F83D002068016821F001010160C9
:1015C000016841F400410160016821F400410160BB
:1015D00000F026FB636848F2A16CC0F2010C40F6F3
:1015E0000011C0F23D0163453CBF48F28041C0F2AA
:1015F0001E01884202D2012001B0F0BD4DF6836188
:10160000C4F21B31A0FB01122168970CD1F804E051
:101610004FF496762EF03F0545EA92454D607743AC
:1016200048F638160D6AC0F24106A7FB067625F08B
:101630003F07634538BF960C721C3A430A62CA6979
:1016400048F2A0664CF6FF77C0F20106B34222EAE8
:1016500007020BD801385B00B0FBF3F001306FF3E9
:101660001F30042898BF04201BE000BFA768013882
:1016700057B119277B43B0FBF3F001306FF31F30F4
:1016800070B100F5804007E003EB4303B0FBF3F0DB
:1016900001306FF31F3018B100F5004001E000BFCA
:1016A00001201043C8610868D4E9072320F0C00076
:1016B000104318430860886848F2FF3204F10C07B1
:1016C00090438CCF18431043A6698860C86820F007
:1016D000FF0038433043C860086840F001000860EC
:1016E00000202021206484F83D10206384F83E000F
:1016F00001B0F0BD2DE9F04383B01E461746894680
:101700000446FFF73FFF94F83D10202924D10546F9
:10171000206800BF816989071AD5FFF733FF411B95
:1017200020681A29F6D381698907F3D50020202182
:10173000206384F83D1084F83E00216C41F02001C4
:10174000216484F83C00022003B0BDE8F08300BFB0
:1017500094F83C10012903D1022003B0BDE8F083C6
:10176000012184F83C100168C90703D1016841F0E8
:1017700001010160016840F2020821F4006101608A
:10178000212184F83D10102184F83E1000212164AD
:1017900067626685618DC0F201082185A8F102119A
:1017A000E162E16A0A9E11F5803F18BF01291DD14F
:1017B000016841F48071016020464FF00111002260
:1017C0003346009501F0B8FA50B120680068C005B2
:1017D00044BF4FF400702064012003B0BDE8F083E3
:1017E0002069B0F5804F07D1FE2015E00829DFD031
:1017F000216B1229DCD0DFE7062000EAD91021682E
:10180000F030086108F10601204632462B4601F00F
:1018100079FB0028E0D1FF20216800EA0900086177
:101820002046414632462B4601F06CFB0028D3D1BE
:10183000002002902068416902918069029002981C
:1018400006E000BF204631462A4601F017FA18BBD1
:10185000208D68B3204631462A4601F0BFFBD8B937
:10186000606A2168024612F8013B0B616262628D78
:10187000013A6285228D531E23854F697F07E1D58A
:101880001B04DFD0437802300B616062608D013849
:101890006085901E2085D5E7206C04289CD12068A7
:1018A000016841F400710160012003B0BDE8F083DC
:1018B0002068016841F400710160202084F83D0037
:1018C000002084F83E0084F83C0003B0BDE8F083BB
:1018D000B0B586B045F200410068C4F200010024B2
:1018E00088420594CDE903440294019402D006B0E5
:1018F000B0BD00BF43F630050094C4F2020528686D
:1019000040F002002860286800F002000090009873
:101910004FF4407001901220CDE90204032004909E
:101920000420059001F5D83001A9FFF74FFD009480
:10193000286940F400102861286900F40010009024
:10194000009806B0B0BD000040F2300040F22C21FB
:10195000C2F20000C2F2000100780A681044086078
:101960007047000080B543F60040C4F202000168F1
:1019700041F400710160016841F480610160016817
:1019800041F480710160032000F088F8002000F02D
:1019900005F800F027F8002080BD000070B540F287
:1019A0003006C2F2000640F238013278C2F200017D
:1019B0004FF47A730968B3FBF2F20446B1FBF2F11B
:1019C000084600F063FB0F2C4FF0010508D838B92A
:1019D0004FF0FF3021460022002500F033F87460FC
:1019E000284670BD82B0002043F640010190C4F249
:1019F00002014A6842F480424A604A6802F4804226
:101A00000192019A0090086840F0805008600868D0
:101A100000F0805000900098072002B000F03EB81F
:101A2000002848BF704700F01F01012202FA01F1AF
:101A30001C2202EAD0004EF20012CEF200028150C7
:101A40007047000010B54EF60C5CCEF2000CDCF8CE
:101A50000030C3F3022E8EF00704042C28BF0424A8
:101A6000BEF103034FF0FF3E0EFA04F438BF00232B
:101A7000A14399400EFA03F39A43114300F00F0279
:101A800000F160430901043A03F56443624400280D
:101A900048BF02F10C03197010BD00004EF60C5146
:101AA000CEF200010A684FF6FF031A4060F30A22E3
:101AB00042F0806040F0FD7008607047002804BF6D
:101AC000012070472DE9F04143F60808C4F20208EE
:101AD0000446D8F8F8030D4600F00700814207D904
:101AE00088F8F853D8F8F80300F00700A84277D137
:101AF0002068810717D5410705D5D8F8001041F4B3
:101B0000E051C8F80010010705D5D8F8001041F4DD
:101B10006041C8F80010D8F80010A26821F0F00168
:101B20001143C8F80010C00740D1D8F8F80300F0FE
:101B30000700854207D288F8F853D8F8F80300F078
:101B40000700A8424CD12068410707D5D8F80010FB
:101B5000E26821F4E0511143C8F80010000708D5ED
:101B6000D8F80000216920F4604040EAC100C8F8BC
:101B7000000000F07DF8D8F8001043F64972C1F378
:101B80000311C0F60002515C40F2380220FA01F164
:101B900040F23400C2F200000068C2F2000211609C
:101BA000FFF7FCFE0020BDE8F08100BF6068811EE9
:101BB000022907D258F8081C89015CBF0120BDE842
:101BC000F08111E0012807D158F8081C89035CBF97
:101BD0000120BDE8F08107E058F8081C890703D40C
:101BE0000120BDE8F08100BFD8F8001021F003010A
:101BF0000843C8F80000FFF7C5FC064641F28837E5
:101C0000D8F80000616800F00C00B0EB810F8CD0B8
:101C1000FFF7B8FC801BB842F2D90320BDE8F08181
:101C200040F2380043F60801C2F20000C4F202019B
:101C30000068096843F65972C1F38221C0F60002B8
:101C4000515CC8407047000040F2380043F608017C
:101C5000C2F20000C4F202010068096843F659723A
:101C6000C1F34231C0F60002515CC8407047000029
:101C700010B543F60404C4F202046168C1F38101A3
:101C800042F20040C0F2F400DFE801F002040A0270
:101C900010BD00BF41F20020C0F27A0010BD00BFAD
:101CA000216801F03F02216823684902C3F38811CB
:101CB00006D4A1FB00010023FEF718FB07E000BFDC
:101CC00041F20020C0F27A004843B0FBF2F02168F4
:101CD0000222C1F3014102EB4101B0FBF1F010BD62
:101CE000002804BF012070472DE9F04182B004466E
:101CF000007843F60006C007C4F202060CD0B068B4
:101D000000F00C00042840F081803068800303D587
:101D10006068002800F06881207880071BD5B068D3
:101D200010F00C0F09D0B06800F00C00082840F04B
:101D300087807068400200F183803068800703D597
:101D4000E068012840F050813068216920F0F800F7
:101D500040EAC10030602078000713D420784007A3
:101D60002AD4A569002D00F03A81B06800F00C007B
:101D7000082840F0A580012D40F00E81012002B01E
:101D8000BDE8F0816069002800F082800020C4F284
:101D900047200121C0F8801EFFF7F4FB054600BF75
:101DA000706F8007DAD4FFF7EDFB401B0228F7D9EC
:101DB000032002B0BDE8F081306C5FEAC0080AD4AD
:101DC00000200190306C40F080503064306C00F0A6
:101DD00080500190019847F20007C4F2000738686C
:101DE000C00547D4386840F480703860FFF7CAFBFC
:101DF000054600BF3868C0053CD4FFF7C3FB401B55
:101E00000228F7D9032002B0BDE8F081B06800F0E5
:101E10000C00082803D1706840023FF576AF616876
:101E20003068B1F5803F07D0B1F5A02F40F09A801F
:101E300040F480203060306840F4803030609AE0B8
:101E4000E068002840F20000C4F247205CD0012185
:101E50000160FFF797FB0546306880073FF574AFD8
:101E6000FFF790FB401B0228F6D9032002B0BDE823
:101E7000F08100BFA168306F012905D0052955D137
:101E800040F004003067306F40F00100306756E0EA
:101E90000020C4F247200021C0F8801EFFF772FB2B
:101EA000054600BF706F80077FF558AFFFF76AFBEC
:101EB000401B0228F6D9032002B0BDE8F08100BF24
:101EC0000027C4F2472700203866FFF75BFB022D8E
:101ED00005460DD13068800140F18A80FFF752FB42
:101EE000401B02284FF00300F4D902B0BDE8F08196
:101EF0003068800173D5FFF745FB401B02284FF087
:101F00000300F5D9F1E700BF00210160FFF73AFBBC
:101F1000054600BF306880077FF51DAFFFF732FB35
:101F2000401B02284FF00300F4D9DEE720F0010047
:101F30003067306F002920F0040030677AD0FFF757
:101F400021FB054641F28837306F800700F184801D
:101F5000FFF718FB401BB842F6D9032002B0BDE8DA
:101F6000F08100BF20F4803030603068002920F418
:101F7000802030607AD0FFF705FB0546306880038B
:101F80003FF5CAAEFFF7FEFA401B6428F6D90320DE
:101F900002B0BDE8F08100BF7068E16900F4800222
:101FA0008A4221D1216A00F03F028A421CD147F6C1
:101FB000C071626A0140B1EB821F15D1A16A4FF670
:101FC000FF73C903994300F44032A1F580318A427E
:101FD0000AD1E16A00F07060B0EB016F04D100201B
:101FE00002B0BDE8F08100BF012002B0BDE8F08181
:101FF00004F11C052FCD084340EA8210D9034FF6A7
:10200000FF729143A1F5803140EA0560084370609A
:1020100001203866FFF7B6FA044600BF3068800139
:10202000DDD4FFF7AFFA001B02284FF00300F5D90B
:102030005BE700BFFFF7A6FA054641F2883700BF0D
:10204000306F800708D5FFF79DFA401BB8424FF06C
:102050000300F5D949E700BFB8F1000F3FF581AEA5
:10206000306C20F0805030647BE600BFFFF78AFAC6
:10207000054600BF306880037FF54EAEFFF782FA59
:10208000401B64284FF00300F4D92EE7411E0020C6
:10209000B0EB116F1CBF012070474EF21002CEF260
:1020A000000251604EF62351CEF20001F0230B7076
:1020B0000721906011607047704700007047000072
:1020C00090F83C20012A04BF02207047B0B501F10E
:1020D00008053CCDD1E900CE23F47C5322F47052A4
:1020E0001A432EF4F0431A432CF4E0431A4324F429
:1020F000C0431A432A43C96922F48042036811434A
:102100005964002180F83C100020B0BD90F83C20BC
:10211000012A4FF0020241D010B580F83D2002683C
:10212000D2F804E0D2F808C00C682EF07003234304
:1021300040F6FF34C4F20004A242536010DCB2F156
:10214000804F1ED040F20043C4F200039A4218D0E0
:1021500040F60003C4F200039A4212D016E000BF1A
:1021600040F60043C4F200039A420AD044F200034E
:10217000C4F201039A4204D00023C4F201039A423C
:1021800004D149682CF08003194391600121002299
:1021900080F83D1080F83C20BDE8104010467047A4
:1021A000002804BF0120704710B5044690F83D0098
:1021B00028B9002084F83C00204600F01FF80220D7
:1021C00084F83D002068211D01F044F8012084F8C6
:1021D000460084F83E0084F83F0084F8400084F80C
:1021E000410084F8420084F8430084F8440084F8F5
:1021F000450084F83D00002010BD0000006800216B
:10220000C4F20101884218BF704780B582B0002037
:10221000019043F64400C4F202000168002241F03C
:10222000010101600068002100F0010001900198A7
:102230001920FFF707FC192002B0BDE88040FFF726
:10224000EFBB000090F83D1001291CBF0120704732
:10225000022180F83D10006840F6FF32C168C4F2E8
:102260000002904241F00101C1600FDCB0F1804FEB
:102270001DD040F20041C4F20001884217D040F660
:102280000001C4F20001884211D017E040F600417D
:10229000C4F2000188420AD044F20001C4F20101F4
:1022A000884204D00021C4F20101884206D181682D
:1022B00001F00701062904BF00207047016841F0C2
:1022C000010101600020704790F83C20012A4FF086
:1022D00002026CD080B580F83D20D0F800C04FF6E7
:1022E0007772DCF8083023EA0202CCF808200B6889
:1022F0004F2B29DC1F2B45DD202B46D0302B44D023
:10230000402B40F0AF80D1F804E0C968DCF8203001
:10231000DCF8202022F00102CCF82020DCF8182084
:1023200022F0F00242EA011123F00A0242EA0E0210
:10233000CCF81810CCF82020DCF8081041F0470148
:1023400021F0300128E000BF6F2B33DDB3F5005FD3
:1023500074D0B3F5805F21D0702B40F08380D1E939
:1023600001E3C968DCF8082043EA0E0322F47F4247
:1023700043EA01211143CCF80810DCF8081041F0C1
:10238000770109E00BB1102B6CD1DCF8081021F0BB
:102390007001194341F00701CCF808100022012117
:1023A00080F83D10002180F83C10BDE880401046C8
:1023B000704700BF502B21D0602B53D1D1F804E0DF
:1023C000C968DCF82030DCF8202022F01002CCF8BC
:1023D0002020DCF8182022F4704242EA013123F078
:1023E000A00242EA0E12CCF81810CCF82020DCF83B
:1023F000081041F0670121F01001CDE7D1F804E0A9
:10240000C968DCF82030DCF8202022F00102CCF88A
:102410002020DCF8182022F0F00242EA011123F01B
:102420000A0242EA0E02CCF81810CCF82020DCF8A0
:10243000081041F0570121F02001ADE7D1E901E397
:10244000C968DCF8082043EA0E0322F47F4243EA1D
:1024500001211143CCF80810DCF8081041F4804148
:102460009AE700BF01229AE77047000070B5044662
:102470000068C5680669B10716D515F0020113D0CA
:102480006FF002010161012121778069800703D08B
:102490002046FFF7E9FF05E0204600F0BDF82046A2
:1024A00000F0EAF900202077700719D515F0040034
:1024B00016D020686FF00401016102212177806944
:1024C00010F4407F04D02046FFF7CEFF06E000BFA7
:1024D000204600F0A1F8204600F0CEF90020207739
:1024E000300717D515F0080014D020686FF00801E8
:1024F000016104212177C069800703D02046FFF7DE
:10250000B3FF05E0204600F087F8204600F0B4F95C
:1025100000202077F00619D515F0100016D020689D
:102520006FF01001016108212177C06910F4407F2C
:1025300004D02046FFF798FF06E000BF204600F0D9
:102540006BF8204600F098F900202077F00718BFBC
:1025500015F0010002D1300609D412E020686FF0B6
:1025600001010161204600F001FA300609D515F09D
:10257000800006D020686FF0800101612046FFF7DF
:102580009BFD700609D515F0400006D020686FF05D
:1025900040010161204600F039FAB00658BF70BD15
:1025A00015F0200008D021686FF0200220460A6153
:1025B000BDE87040FFF782BD70BD000080B586B0F9
:1025C00000210068C4F20101002288420592CDE991
:1025D00003220292019201D006B080BD43F6300082
:1025E0000092C4F20200036843F001030360006834
:1025F00000F00100009000984FF44070019002201C
:10260000CDE902020120059001F5803001A9049274
:10261000FEF7DCFE06B080BD7047000090F83C304D
:10262000012B04BF022070474FEAB202032A00F2D6
:10263000ED802DE9F043DFE802F003A3397300BF1A
:10264000036800261D6A1A6AC4F2010622F001021C
:102650001A621A465C6852F818CFB3428E68D1F8F5
:1026600000E025F0020545EA06050CD1CE68D1E967
:10267000057824F4407425F00C0526F004063C434C
:10268000354344EA08042CF0730747EA0E075C6000
:102690009F614F6809695F631D629F6947F0080782
:1026A0009F619F6927F004079F61A4E003680026EB
:1026B0001D6A1A6AC4F2010622F480721A621A466E
:1026C000D3F804C052F81CEFB3428E680C6825F4AE
:1026D000007545EA06250FD1CE68D1E90598360286
:1026E00040F2FF4725F44065BE4335432CF4405784
:1026F00048EA090647EA061C2EF073072743C3F889
:1027000004C0DF614F680969DF631D62DF6947F05C
:102710000807DF61DF6927F00407DF616BE000BFB6
:1027200003680027D3F820C01A6AC4F2010722F414
:1027300080521A621A465C6852F81C5FD1F800E0B9
:102740008E68BB4204D14F6924F4804444EA871464
:102750002CF4005747EA063725F4E64646EA0E26EB
:102760005C60DE614E6809691E641F62DF6947F4C0
:102770000067DF61DF6927F48067DF613AE000BF4F
:10278000036800261D6A1A6AC4F2010622F01002CC
:102790001A621A46D3F804C052F8184FB3428E6832
:1027A000D1F800E025F0200545EA06150FD1CE68E6
:1027B000D1E905986FF0400725F0C00507EA061635
:1027C00035432CF4406748EA090647EA860C24F4AE
:1027D000E64444EA0E27C3F804C09F614F680969C4
:1027E0009F631D629F6947F400679F619F6927F49B
:1027F00080679F6109021368194311600021BDE8D9
:10280000F043002280F83C20084670470121002256
:1028100080F83C2008467047002804BF012070471C
:1028200010B5044690F83D0028B9002084F83C001B
:10283000204600F01FF8022084F83D002068211D8A
:1028400000F008FD012084F8460084F83E0084F87A
:102850003F0084F8400084F8410084F8420084F886
:10286000430084F8440084F8450084F83D000020CB
:1028700010BD00007047000070470000C1B104297E
:1028800008D0082914BF41224022825C012A05D0C9
:1028900016E000BF3F22825C012A11D102220829E2
:1028A00010D0042914BF80F8412080F83F200BE0AD
:1028B00090F83E20012A03D1022280F83E2003E056
:1028C0000120704780F84020006801F01F010122BC
:1028D000036A8A4023EA02010162036A4421C4F2C6
:1028E00001011A43A1F144039842026216D040F656
:1028F000FF31C4F2000188421ADCB0F1804F28D0C9
:1029000040F20041C4F20001884222D040F60001AA
:10291000C4F2000188421CD022E000BF0A6842F4E1
:1029200000420A6040F6FF31C4F200018842E4DD53
:1029300040F60041C4F2000188420AD044F200018E
:10294000C4F20101884204D00021C4F2010188428E
:1029500006D1816801F00701062904BF00207047F5
:10296000016841F00101016000207047006800210A
:10297000C4F20101884218BF704710B540F2A004AC
:10298000C2F20004606921690844800704BF002086
:10299000A081E07820B360692169084400F0030059
:1029A00016A151F82000A278A1892AB1884205D940
:1029B00094F8290004E000BF084401E0A189081A46
:1029C000A081A08994F82810884207D2A08994F8A1
:1029D0002910884204D8002001E000BF0120A07027
:1029E000E26BA18904F12400C9B29047A26DA189CC
:1029F00004F14000C9B2BDE81040104700000000DB
:102A000004000000070000000900000070470000FB
:102A1000002804BF0120704710B5044690F841001B
:102A200028B9002084F84000204600F021F8242036
:102A300084F841002068C16821F40051C16020463B
:102A400000F084FC2068016921F490410161416932
:102A500021F02A014161C16841F40051C1600020A8
:102A60002021606484F8411084F84210606310BD36
:102A700080B586B044F200410068C4F20001002233
:102A800088420592CDE903220292019202D006B05B
:102A900080BD00BF43F630000092C4F2020003691B
:102AA00043F400330361036903F400330093009B94
:102AB0000092036843F001030360006800F0010026
:102AC000009000980C2001900220CDE90202032022
:102AD00004900720059001F5DE3001A9FEF776FC91
:102AE00006B080BD2DE9F04381B0044690F8410066
:102AF000202809D100294FF0010018BF002A07D172
:102B000001B0BDE8F08300BF022001B0BDE8F08352
:102B10000020606421201D460E4684F841001746BF
:102B2000FEF730FDA784E784A1688146B1F5805F98
:102B300002D1206900285DD037460020E28C216850
:102B4000002A5DD06A1C24D0002D4AD0804600BFE8
:102B50000868000608D4FEF715FDA0EB0900A8429E
:102B60007AD82168C868F3E717B117F8010B04E0B9
:102B700038F8020B00276FF35F204860E08C0138C3
:102B8000E084E08C0028E3D13AE000BF0A68120636
:102B900009D40A68120606D40A6812065CBF0A68DD
:102BA0005FEA0262F2D51FB117F8012B05E000BF02
:102BB00030F8022B00276FF35F224A60E28C013A63
:102BC000E284E28C002AE4D11AE000BF30F8022B44
:102BD00000276FF35F224A60E28C013AE284E28CC4
:102BE00072B10A68120635D5002FEFD017F8012B05
:102BF000F1E700BF00273046E28C2168002AA1D10E
:102C0000086840061ED42DB3681C14D1086840061D
:102C10002AD40868400627D40868400624D40868E7
:102C200040064FF00000F1D50DE000BF2068C168FC
:102C30000068400618D4FEF7A5FCA0EB0900A842E6
:102C4000F4D909E00020202184F8411001B0BDE84A
:102C5000F08300BFFEF796FC0320202184F841108A
:102C600001B0BDE8F08300BF0020202184F84110AE
:102C700001B0BDE8F0830000FEE7000070B5036816
:102C8000044653F8140F400711D40E46481C29D0AF
:102C900086BB00BF1868400527D4FEF773FC236885
:102CA00053F8140F400737D518684007F2D50020B5
:102CB00070BD00BF18684007F9D41868400514D4E7
:102CC00018684007F3D4186840050ED41868400708
:102CD000EDD41868400508D4186840074FF000008C
:102CE00048BF70BD18684005E4D56FF48060186077
:102CF000042012E0154603E053F8140F4007D6D421
:102D000018684005F1D4FEF73DFC401B2368B04233
:102D1000F2D958694007EFD42020002120222163F6
:102D200084F83D2084F83E10226C1043206401207A
:102D300084F83C1070BD00002DE9F04105460068A4
:102D40001E46144601F47F0201338FB242D0DDF8F3
:102D50001880B2F5803F40F0878040693840C01B42
:102D6000B0FA80F04009844240F0C8804EB924E0B7
:102D700040693840C01BB0FA80F04009844240F0FE
:102D8000BD80FEF7FFFBA0EB08012868B142EFD938
:102D900041693940C91BB1FA81F149098C42E7D137
:102DA0009BE000BF40693840C01BB0FA80F040098A
:102DB00084424FF0000040F0A280FEF7E3FB286859
:102DC00041693940C91BB1FA81F149098C42E9D105
:102DD00083E000BFB2F5803F24D100BF4169394094
:102DE000C91BB1FA81F149098C4240F087804169E1
:102DF0003940C91BB1FA81F149098C4240F07E800B
:102E000041693940C91BB1FA81F149098C4275D138
:102E100041693940C91BB1FA81F149098C42DDD0C1
:102E20006CE000BF81693940C91BB1FA81F14909E1
:102E30008C4263D181693940C91BB1FA81F14909DA
:102E40008C425BD181693940C91BB1FA81F14909D2
:102E50008C4253D181693940C91BB1FA81F14909CA
:102E60008C42DFD04AE000BF80693840C01BB0FA16
:102E700080F04009844241D146B923E0806938405E
:102E8000C01BB0FA80F04009844237D1FEF77AFBCC
:102E9000A0EB08012868B142F0D981693940C91B0B
:102EA000B1FA81F149098C42E8D116E080693840D5
:102EB000C01BB0FA80F0400984424FF0000018BFF8
:102EC000BDE8F081FEF75EFB286881693940C91BC7
:102ED000B1FA81F149098C42E8D100202021286310
:102EE00085F83D1085F83E00296C41F020012964E9
:102EF00085F83C000120BDE8F08100BF0020BDE85E
:102F0000F0810000F0B581B0044600681D464369B9
:102F10008FB203EA0701B94202D1002001B0F0BD2F
:102F20004169164601323CD0490512D47EB300BF38
:102F3000FEF728FB411B2068B14203D941693940A3
:102F4000B9422BD141693940B942E6D041694905BE
:102F5000EED5016841F4007101606FF48061416158
:102F6000042000212022216384F83D2084F83E10B3
:102F7000226C1043206484F83C10012001B0F0BDA5
:102F800041693940B942C8D041694905E1D4FEF7E9
:102F9000F9FA206841693940B942F1D02020E0E7D0
:102FA00041694905D5D441693940B942B5D0416933
:102FB0004905CED441693940B942AED0416949058D
:102FC000C7D441693940B942A7D041694905C0D445
:102FD00041693940B942E3D19FE7000070B5036809
:102FE000044653F8140F000611D40E46481C29D08D
:102FF00086BB00BF1868400527D4FEF7C3FA2368D4
:1030000053F8140F000637D518680006F2D50020D3
:1030100070BD00BF18680006F9D41868400514D4C4
:1030200018680006F3D4186840050ED41868000626
:10303000EDD41868400508D4186800064FF0000069
:1030400048BF70BD18684005E4D56FF48060186013
:10305000042012E0154603E053F8140F0006D6D4FE
:1030600018684005F1D4FEF78DFA401B2368B04282
:10307000F2D958690006EFD42020002120222163D4
:1030800084F83D2084F83E10226C10432064012017
:1030900084F83C1070BD0000FEE70000FEE7000071
:1030A0007047000070B58EB00246B0F5C87F1DD8DD
:1030B00040F2A005C2F20005A869002853D00DF126
:1030C00006042EA12046FDF789F92046FDF7B0FB46
:1030D00082B240F2E010C2F2000021464FF0FF330E
:1030E000FFF700FD0020A861286135E0B2F5167FEA
:1030F00039D3B2F5617F0DD9B2F5966F33D340F273
:10310000DD50824232D3A2F6350010F5977F2AD9DE
:10311000032500E0012540F2A006C2F20006B069D6
:10312000A84220D012A000EB850050F8041C0DF13D
:1031300006042046FDF752F920463561FDF778FB7D
:1031400082B240F2E010C2F2000021464FF0FF339D
:10315000FFF7C8FC0120B56140F2A001C2F20001F6
:1031600001220A71C8700EB070BD00BF0225D2E7FF
:103170008A3F00087F3F0008763F000853544F50B5
:103180002025750A0000000070470000FEF7DCBB38
:1031900070B592B006AC20463021FDF768FB0025E3
:1031A00043F640000595CDE90355CDE9015500955D
:1031B000C4F202000168022641F0805101600068FB
:1031C00000F080500090009847F200000095C4F293
:1031D0000000016841F440410160006800F4404093
:1031E000009000980120099010200A900E904FF452
:1031F000A8700F900420CDE9100020460696CDE976
:103200000C65FEF76DFD18B172B600BFFEE700BF9A
:103210000F20CDE901064FF48050CDE9040501A847
:1032200002210395FEF74AFC10B172B6FEE700BF1B
:1032300012B070BD4EF68850CEF20000016841F425
:10324000700101607047000040F29810C2F2000067
:10325000FFF70CB9B0B540F2FF7E0568C4F2000E6E
:1032600040F2000C7045C4F2010C1DDD40F6000375
:10327000C4F20003984220D060451ED040F60043BF
:10328000C4F20003984218D04FF6FF73C4F2000353
:1032900098421DDC704527DCB0F1804F3CD040F2F5
:1032A0000043C4F2000335E0B0F1804F05D040F296
:1032B0000043C4F200039842E6D14B6825F0700247
:1032C00043EA02054FF6FF73C4F200039842E1DDC2
:1032D00044F2FF33C4F20103984211DC60451BD075
:1032E00044F2000314E000BF40F60003C4F2000300
:1032F000984211D040F60043C4F200030AE000BF38
:1033000044F60003C4F20103984205D044F200439E
:10331000C4F20103984204D1CB6825F4407243EA19
:1033200002050A688C684B696045C462826202D1FA
:103330000969CCF83010026825F0800142F00402DF
:1033400019430260012242610160B0BDB0B504467C
:10335000006804F108030ECB0569194325F44055B4
:103360002A4302616269E3691143C268194349F261
:103370000C639A431143C1604169A26921F4407111
:1033800041F20043114340F48062C4F201039A42C7
:10339000416103D1FEF758FC02E000BFFEF740FC9C
:1033A000E1694FF69C7563681922C0F6FF75B1F5A7
:1033B000004FA0FB02011FD15A00DB0FFCF796FF64
:1033C00048F21F51C5F2EB11A0FB01235A0905F188
:1033D000805302FB0300322303EBC000A0FB01017A
:1033E0004FF4F87000EA111000EB0210C1F3421123
:1033F000084421688860B0BD9A009B0FFCF776FFF7
:1034000048F21F51C5F2EB11A0FB01235A0902FB40
:103410000500322303EB0010A0FB0101F02000EABD
:10342000511000EB0210C1F3431108442168886079
:10343000B0BD0000FEE70000034640F6E93040F66C
:10344000793CC0F60000C0F6000CC3E90410104639
:10345000C3F818C01A60FFF711BA0000F0B583B0C6
:103460000C46302101EAC001C00101F148024C3193
:1034700040F228278DF8041000F108010C30C2F248
:1034800000078DF8060038688DF805208DF80710C4
:103490004FF0FF3601AA4E2104230096FEF72AF9C9
:1034A000207802AD20F00F01000101F109020D3179
:1034B0008DF8081000F109010D308DF80A00386808
:1034C0008DF809208DF80B104E212A460423009612
:1034D000FEF710F96078042320F00F01000101F1DC
:1034E00009020D318DF8081000F109010D308DF839
:1034F0000A0038688DF809208DF80B104E212A46F5
:103500000096FEF7F7F8A078042320F00F010001E1
:1035100001F109020D318DF8081000F109010D309B
:103520008DF80A0038688DF809208DF80B104E21AF
:103530002A460096FEF7DEF8E078042320F00F011B
:10354000000101F109020D318DF8081000F10901A7
:103550000D308DF80A0038688DF809208DF80B10B1
:103560004E212A460096FEF7C5F82079042320F064
:103570000F01000101F109020D318DF8081000F171
:1035800009010D308DF80A0038688DF809208DF892
:103590000B104E212A460096FEF7ACF86079042302
:1035A00020F00F01000101F109020D318DF8081022
:1035B00000F109010D308DF80A0038688DF80920F6
:1035C0008DF80B104E212A460096FEF793F8A0794D
:1035D000042320F00F01000101F109020D318DF8E3
:1035E000081000F109010D308DF80A0038688DF8D7
:1035F00009208DF80B104E212A460096FEF77AF826
:10360000E079042320F00F01000101F109020D31DE
:103610008DF8081000F109010D308DF80A003868A6
:103620008DF809208DF80B104E212A460096FEF7E2
:1036300061F803B0F0BD0000F0B583B040F228257A
:10364000C2F20005286064206426FDF783FE286826
:1036500002AC43F63C074E2122460223ADF8087027
:103660000096FEF747F80520FDF774FE28684E2106
:1036700022460223ADF808700096FEF73BF80120C1
:10368000FDF768FE28684E2122460223ADF8087037
:103690000096FEF72FF80120FDF75CFE42F62C01A4
:1036A0002868ADF8081002AA4E2102230096FEF702
:1036B00021F80120FDF74EFE42F62C01C8F68C01E0
:1036C000286802914FF0FF3402AA4E21042300948F
:1036D000FEF710F840F60C01C8F68C01286802913C
:1036E00002AA4E2104230094FEF704F840F60C01D0
:1036F000C1F61C012868029102AA4E2104230094FD
:10370000FDF7F8FF0220FDF725FE40F60C01C6F696
:103710006C012868029102AA4E2104230094FDF74F
:10372000E9FF40F60C01CCF6CC012868029102AA10
:103730004E2104230094FDF7DDFF03B0F0BD00002F
:10374000914228BF70472DE9F04F83B00D4643F6F4
:103750007271C0F6000111F800B0702000EA031089
:1037600040F22826924600F1090700F10D04C2F24A
:1037700000064FF0FF380DF1080900BF0BEB050004
:1037800000F07001000101F188028C318DF8041005
:1037900000F108010C308DF8060030688DF8052026
:1037A0008DF807104E2101AA0423CDF80080FDF703
:1037B000A1FF40F60D10ADF8080030684E214A46D2
:1037C00004238DF80A408DF80B70CDF80080FDF7CA
:1037D00091FF0135E8B25045D0D303B0BDE8F04FBA
:1037E000704700000178002908BF7047F0B583B02A
:1037F00040F22826451EC2F200064FF0FF3702AC09
:1038000021F00F00090100F109020D308DF80800C8
:1038100001F10D008DF8092001F109028DF80A006F
:1038200030688DF80B204E21224604230097FDF7C7
:1038300061FFA97801350029E2D103B0BDE8F0406D
:103840007047000080B582B043F67272C0F6000285
:10385000105C4FF0FF3C084400F07001000101F1E2
:1038600088028C318DF8041000F108010C308DF8BD
:10387000060040F22820C2F2000000688DF8052002
:103880008DF8071001AA4E210423CDF800C0FDF7E2
:1038900031FF02B080BD00009CB040F20008C4F2CD
:1038A0000208FEF75FF8FFF773FC002643F63000CE
:1038B0000696CDE90466CDE902660F96C4F20200D1
:1038C0000168002241F0040101600168202701F035
:1038D00004010F910F990F96016841F0800101607A
:1038E000016801F080010F910F990F96016841F076
:1038F00001010160016801F001010F910F990F961C
:10390000016841F0020101600068202100F002001E
:103910000F900F984046FDF72FFE4FF4005002AD78
:1039200002904FF4041408F500602946CDE90346DF
:10393000FDF74CFD0297012740462946CDE9037665
:103940000596FDF743FD08F580602946CDE9027430
:103950000497FDF73BFD062000210022FEF772F8D8
:103960000620FEF75DF840F24410A8F5D631C2F209
:10397000000048F2A0624FF48043C0F2010280E8E8
:103980004600C0E90363C0E90566C0E90766FDF7C4
:10399000FFFD18B172B600BFFEE700BF40F29810FD
:1039A000A8F58031C2F2000044F61F631B96CDE9F2
:1039B0001966CDE916660896532280E84600C0E9EC
:1039C0000336C0E90566FEF7EBFB18B172B600BF1F
:1039D000FEE700BF4FF48050189040F29810C2F2FA
:1039E000000018A9FEF770FC10B172B6FEE700BF28
:1039F00040F29810C2F20000FEF70EFF10B172B64E
:103A0000FEE700BF40F29810C2F2000016A9FEF7D0
:103A10007DFB18B172B600BFFEE700BF60200F90BB
:103A20000020CDE91000CDE91200CDE9140040F2EC
:103A30009810C2F200000FA90022FEF7EFFD18B1A6
:103A400072B600BFFEE700BF40F29810C2F200005D
:103A50000FA90422FEF7E2FD10B172B6FEE700BF27
:103A60004FF40050079040F298100025C2F2000079
:103A700002A90695CDE90455CDE902550995FEF751
:103A80001FFB18B172B600BFFEE700BF40F29810EE
:103A9000C2F20000FEF792FD40F2E010A8F5DE3120
:103AA000C2F200000C234FF4E13280E82600C0E9A6
:103AB0000355C0E90535C561FEF7AAFF10B172B61E
:103AC000FEE700BF40F2FC0001270025C2F2000023
:103AD000C0F600770121A8F56042C0E90A75022707
:103AE00007950691CDE91155CDE90F554FF4803377
:103AF000017680F82050C76180F8305080E82C00B3
:103B0000C0E903514161FDF75DFA18B172B600BF1B
:103B1000FEE700BF40F20020C0F2800002904FF4A8
:103B2000C870CDE9030540F2FC00C2F2000002A912
:103B30000595FDF763F808B172B6FEE70020012491
:103B40000F90CDE9104040F2FC00C2F200000FA936
:103B5000FDF788F810B172B6FEE700BF02201090A2
:103B600040F2FC00C2F200000FA90F94FDF77AF8B2
:103B700010B172B6FEE700BF40F2FC0640F2A00AA8
:103B80000120C2F2000602ADC2F2000A0024CDE913
:103B90000300304629464FF6FF798AF80040059425
:103BA0000294FDF75FF83046FDF720FB0620002168
:103BB0000022FDF747FF0620FDF732FF122001210A
:103BC0000022FDF73FFF1220FDF72AFF3046FDF7E8
:103BD0000DFB192002210022FDF734FF1920FDF70B
:103BE0001FFF40F2981B0AF12407C2F2000B38466F
:103BF00000215A46FFF720FC0AF140084046042104
:103C00005A46FFF719FCDAF8386040F6C41C38460B
:103C10000021B4224FF4FA730197CDF800C040F6AA
:103C2000C417B047DAF8546040460021B4224FF47C
:103C3000FA730097B0475846FEF704FB4FF47A70CA
:103C4000FDF788FB40F24410C2F20000FFF7F4FCDD
:103C500040F20007C2F2000707F11000FFF7C2FDB3
:103C600000200821FFF7EEFD43F6B670C0F6000015
:103C7000FFF7B8FD4FF47A70FDF76CFB07F1080110
:103C80000020FFF7EBFB0AF11C010120FFF7E6FB28
:103C900045F2534BC5F24F0B4FF6FF7605E000BFE0
:103CA0008AF804406420FDF755FB28463221FCF7D2
:103CB000DEFDBAF80600B04259D040F6C511884280
:103CC00010D30320CAF8140001208AF803008AF8F0
:103CD000040044F64810C4F6470002908DF80C40EA
:103CE00028E000BF40F2DB51884231D80420CAF8F6
:103CF000140045F2415040F2FC06C4F65470C2F282
:103D0000000602908DF80C403C46012730468AF8A8
:103D10000470FDF7FFFA002012900A20CDE90F078A
:103D200030460FA9119727460024FCF79BFF304629
:103D3000FDF75CFADAF83C20BAF80C00C1B2019841
:103D40009047DAF85820BAF80C00C1B240469047C4
:103D50002846FCF76DFD82B240F2E010C2F200008E
:103D600029464FF0FF33FEF7BDFEBAF80660BAF8F9
:103D70000800484545D040F6C511884214D30220BA
:103D8000CAF8140001208AF803008AF8040044F6F7
:103D90004E70C4F65250029044F24D10C0F24C00E6
:103DA000CDF80B0010E000BF40F2DB51884219D87B
:103DB0000120CAF814008AF803008AF8040044F6C7
:103DC0004C70C0F257000290DAF83C20BAF80C00B0
:103DD000C1B201989047DAF85820BAF80C00C1B285
:103DE000404690472846FCF723FD82B240F2E0109F
:103DF000C2F2000029464FF0FF33FEF773FEBAF817
:103E000008909AF80100A0B12846CAF81440CDF8ED
:103E100008B08DF80C40FCF70BFD82B240F2E010C8
:103E2000C2F2000029464FF0FF33FEF75BFE8AF82E
:103E300001409AF8040000283FF434AF0020082124
:103E40000D220123FFF77CFC00200821FFF7FAFC7C
:103E5000DAF8140007EB8000C069FFF7C3FC0A2002
:103E6000FDF778FA01200021FFF7ECFC3846FFF758
:103E7000B9FC01200721FFF7E5FC012007210A22F8
:103E80000023FFF75DFCDAF810000A220730C1B208
:103E900001200123FFF754FCDAF8140004283FF452
:103EA000FFAE0120002110220123FFF749FCF7E6B5
:103EB00030380A2801D201207047002070470000E6
:103EC00010B500290AD00878002807D005487844A2
:103ED000FCF7FEFD002801D0002010BD0248784408
:103EE00010BD0000120100000A010000F1EE100AEE
:103EF0004FF6FF71C0F2C03120EA010040F040707F
:103F0000E1EE100A70470000000000000000000011
:103F100030313233343536373839414243444546FF
:103F200040305800303132333435363738396162F9
:103F300063646566403078000400000800000000FB
:103F4000000000020001000010000000000000005E
:103F50000001020304060708090000000001020333
:103F6000040090018403DC05340800005802B0040A
:103F7000080700401454484947482025750A004E58
:103F80004F524D414C2025750A004C4F5720257546
:103F90000A0048494748004E4F524D414C00415598
:103FA000544F0053544F50004D696400486967688E
:103FB000004175746F0053746F70004C6F77000090
:103FC000F04000080000002040000000FC01000854
:103FD0003041000840000020F00700001C020008EB
:103FE0001001000043000000F8FFFFFF00404040C8
:103FF00040404040404041414141414040404040BC
:104000004040404040404040404040404005020267
:104010000202020202020202020202020220202026
:104020002020202020202002020202020202909082
:104030009090909010101010101010101010101080
:1040400010101010101010100202020202028888D4
:1040500088888888080808080808080808080808E0
:1040600008080808080808080202020240000000C8
:104070000000000000000000000000000000000040
:104080000000000000000000000000000000000030
:104090000000000000000000000000000000000020
:1040A0000000000000000000000000000000000010
:1040B0000000000000000000000000000000000000
:1040C00000000000000000000000000000000000F0
:1040D00000000000000000000000000000000000E0
:1040E00000000000000000000000000000000000D0
:1040F0005261696E203A200004040A0A11110E0070
:104100005370656564203A2000000000B63F000847
:10411000BB3F0008A83F0008AC3F0008B13F0008C3
:1041200001000000100000000024F4000000000066
:040000050800019955
:00000001FF
